{
  "contractName": "Uno",
  "abi": [
    {
      "constant": true,
      "inputs": [],
      "name": "gameStarted",
      "outputs": [
        {
          "name": "",
          "type": "bool"
        }
      ],
      "payable": false,
      "stateMutability": "view",
      "type": "function",
      "signature": "0x5e123ce4"
    },
    {
      "constant": true,
      "inputs": [],
      "name": "lastTimeMoved",
      "outputs": [
        {
          "name": "",
          "type": "uint256"
        }
      ],
      "payable": false,
      "stateMutability": "view",
      "type": "function",
      "signature": "0x60fc48cf"
    },
    {
      "constant": false,
      "inputs": [],
      "name": "renounceOwnership",
      "outputs": [],
      "payable": false,
      "stateMutability": "nonpayable",
      "type": "function",
      "signature": "0x715018a6"
    },
    {
      "constant": true,
      "inputs": [],
      "name": "owner",
      "outputs": [
        {
          "name": "",
          "type": "address"
        }
      ],
      "payable": false,
      "stateMutability": "view",
      "type": "function",
      "signature": "0x8da5cb5b"
    },
    {
      "constant": true,
      "inputs": [],
      "name": "isOwner",
      "outputs": [
        {
          "name": "",
          "type": "bool"
        }
      ],
      "payable": false,
      "stateMutability": "view",
      "type": "function",
      "signature": "0x8f32d59b"
    },
    {
      "constant": true,
      "inputs": [],
      "name": "nextMover",
      "outputs": [
        {
          "name": "",
          "type": "uint256"
        }
      ],
      "payable": false,
      "stateMutability": "view",
      "type": "function",
      "signature": "0xd82c725b"
    },
    {
      "constant": false,
      "inputs": [
        {
          "name": "newOwner",
          "type": "address"
        }
      ],
      "name": "transferOwnership",
      "outputs": [],
      "payable": false,
      "stateMutability": "nonpayable",
      "type": "function",
      "signature": "0xf2fde38b"
    },
    {
      "constant": true,
      "inputs": [
        {
          "name": "",
          "type": "uint256"
        }
      ],
      "name": "players",
      "outputs": [
        {
          "name": "",
          "type": "address"
        }
      ],
      "payable": false,
      "stateMutability": "view",
      "type": "function",
      "signature": "0xf71d96cb"
    },
    {
      "payable": true,
      "stateMutability": "payable",
      "type": "fallback"
    },
    {
      "anonymous": false,
      "inputs": [],
      "name": "GameStarted",
      "type": "event",
      "signature": "0x762f260439bb4be3ef6e4dc2786e2e7bd187d3d80b79057d7a424fe98563e335"
    },
    {
      "anonymous": false,
      "inputs": [
        {
          "indexed": false,
          "name": "player",
          "type": "address"
        }
      ],
      "name": "PlayerJoined",
      "type": "event",
      "signature": "0x31e760aa525306aba638a784082a013b6a1cc0a9a1789f3f22281c0453b10b1f"
    },
    {
      "anonymous": false,
      "inputs": [
        {
          "indexed": false,
          "name": "player",
          "type": "address"
        },
        {
          "indexed": false,
          "name": "hash",
          "type": "string"
        }
      ],
      "name": "PlayerMoved",
      "type": "event",
      "signature": "0x8e0288ecaf5aedbcd8778b14cf751a30c9a5896344a34e355237ffaa9f96f6c1"
    },
    {
      "anonymous": false,
      "inputs": [
        {
          "indexed": false,
          "name": "player",
          "type": "address"
        }
      ],
      "name": "WinnerChosen",
      "type": "event",
      "signature": "0x315cb5b050a86ef070d8bbdb6e5c148729794c3ddca6e95bc09cccbdc5d124e3"
    },
    {
      "anonymous": false,
      "inputs": [
        {
          "indexed": true,
          "name": "previousOwner",
          "type": "address"
        },
        {
          "indexed": true,
          "name": "newOwner",
          "type": "address"
        }
      ],
      "name": "OwnershipTransferred",
      "type": "event",
      "signature": "0x8be0079c531659141344cd1fd0a4f28419497f9722a3daafe3b4186f6b6457e0"
    },
    {
      "constant": false,
      "inputs": [],
      "name": "joinGame",
      "outputs": [],
      "payable": true,
      "stateMutability": "payable",
      "type": "function",
      "signature": "0xd4f77b1c"
    },
    {
      "constant": false,
      "inputs": [],
      "name": "startGame",
      "outputs": [],
      "payable": false,
      "stateMutability": "nonpayable",
      "type": "function",
      "signature": "0xd65ab5f2"
    },
    {
      "constant": false,
      "inputs": [
        {
          "name": "_hash",
          "type": "string"
        }
      ],
      "name": "move",
      "outputs": [],
      "payable": false,
      "stateMutability": "nonpayable",
      "type": "function",
      "signature": "0x0bfb0697"
    },
    {
      "constant": false,
      "inputs": [
        {
          "name": "_player",
          "type": "address"
        }
      ],
      "name": "chooseWinner",
      "outputs": [],
      "payable": true,
      "stateMutability": "payable",
      "type": "function",
      "signature": "0x3c7bb913"
    },
    {
      "constant": false,
      "inputs": [
        {
          "name": "player",
          "type": "address"
        }
      ],
      "name": "expulsePlayer",
      "outputs": [],
      "payable": false,
      "stateMutability": "nonpayable",
      "type": "function",
      "signature": "0xa4e80aa5"
    },
    {
      "constant": false,
      "inputs": [
        {
          "name": "_player",
          "type": "address"
        }
      ],
      "name": "expulsePlayerForTimeout",
      "outputs": [],
      "payable": false,
      "stateMutability": "nonpayable",
      "type": "function",
      "signature": "0x5309fb78"
    },
    {
      "constant": true,
      "inputs": [
        {
          "name": "_player",
          "type": "address"
        }
      ],
      "name": "isPlaying",
      "outputs": [
        {
          "name": "",
          "type": "bool"
        }
      ],
      "payable": false,
      "stateMutability": "view",
      "type": "function",
      "signature": "0xb7665613"
    },
    {
      "constant": true,
      "inputs": [],
      "name": "isTimeout",
      "outputs": [
        {
          "name": "",
          "type": "bool"
        }
      ],
      "payable": false,
      "stateMutability": "view",
      "type": "function",
      "signature": "0x32c26957"
    }
  ],
  "bytecode": "0x608060405260006002556000600360006101000a81548160ff021916908315150217905550336000806101000a81548173ffffffffffffffffffffffffffffffffffffffff021916908373ffffffffffffffffffffffffffffffffffffffff1602179055506000809054906101000a900473ffffffffffffffffffffffffffffffffffffffff1673ffffffffffffffffffffffffffffffffffffffff16600073ffffffffffffffffffffffffffffffffffffffff167f8be0079c531659141344cd1fd0a4f28419497f9722a3daafe3b4186f6b6457e060405160405180910390a3611550806100ef6000396000f3fe6080604052600436106100e6576000357c0100000000000000000000000000000000000000000000000000000000900463ffffffff1680630bfb0697146100eb57806332c26957146101715780633c7bb913146101a05780635309fb78146101e45780635e123ce41461023557806360fc48cf14610264578063715018a61461028f5780638da5cb5b146102a65780638f32d59b146102fd578063a4e80aa51461032c578063b76656131461037d578063d4f77b1c146103e6578063d65ab5f2146103f0578063d82c725b14610407578063f2fde38b14610432578063f71d96cb14610483575b600080fd5b3480156100f757600080fd5b5061016f6004803603602081101561010e57600080fd5b810190808035906020019064010000000081111561012b57600080fd5b82018360208201111561013d57600080fd5b8035906020019184600183028401116401000000008311171561015f57600080fd5b90919293919293905050506104fe565b005b34801561017d57600080fd5b50610186610703565b604051808215151515815260200191505060405180910390f35b6101e2600480360360208110156101b657600080fd5b81019080803573ffffffffffffffffffffffffffffffffffffffff169060200190929190505050610712565b005b3480156101f057600080fd5b506102336004803603602081101561020757600080fd5b81019080803573ffffffffffffffffffffffffffffffffffffffff169060200190929190505050610941565b005b34801561024157600080fd5b5061024a610b6a565b604051808215151515815260200191505060405180910390f35b34801561027057600080fd5b50610279610b7d565b6040518082815260200191505060405180910390f35b34801561029b57600080fd5b506102a4610b83565b005b3480156102b257600080fd5b506102bb610c55565b604051808273ffffffffffffffffffffffffffffffffffffffff1673ffffffffffffffffffffffffffffffffffffffff16815260200191505060405180910390f35b34801561030957600080fd5b50610312610c7e565b604051808215151515815260200191505060405180910390f35b34801561033857600080fd5b5061037b6004803603602081101561034f57600080fd5b81019080803573ffffffffffffffffffffffffffffffffffffffff169060200190929190505050610d2c565b005b34801561038957600080fd5b506103cc600480360360208110156103a057600080fd5b81019080803573ffffffffffffffffffffffffffffffffffffffff169060200190929190505050610d6b565b604051808215151515815260200191505060405180910390f35b6103ee610e0f565b005b3480156103fc57600080fd5b50610405611062565b005b34801561041357600080fd5b5061041c61119a565b6040518082815260200191505060405180910390f35b34801561043e57600080fd5b506104816004803603602081101561045557600080fd5b81019080803573ffffffffffffffffffffffffffffffffffffffff1690602001909291905050506111a0565b005b34801561048f57600080fd5b506104bc600480360360208110156104a657600080fd5b81019080803590602001909291905050506111bf565b604051808273ffffffffffffffffffffffffffffffffffffffff1673ffffffffffffffffffffffffffffffffffffffff16815260200191505060405180910390f35b61050733610d6b565b151561057b576040517f08c379a000000000000000000000000000000000000000000000000000000000815260040180806020018281038252600e8152602001807f496e76616c696420706c6179657200000000000000000000000000000000000081525060200191505060405180910390fd5b3373ffffffffffffffffffffffffffffffffffffffff1660016002548154811015156105a357fe5b9060005260206000200160009054906101000a900473ffffffffffffffffffffffffffffffffffffffff1673ffffffffffffffffffffffffffffffffffffffff16141515610659576040517f08c379a000000000000000000000000000000000000000000000000000000000815260040180806020018281038252600b8152602001807f57726f6e67206d6f76657200000000000000000000000000000000000000000081525060200191505060405180910390fd5b426004819055506106686111fd565b7f8e0288ecaf5aedbcd8778b14cf751a30c9a5896344a34e355237ffaa9f96f6c1338383604051808473ffffffffffffffffffffffffffffffffffffffff1673ffffffffffffffffffffffffffffffffffffffff168152602001806020018281038252848482818152602001925080828437600081840152601f19601f82011690508083019250505094505050505060405180910390a15050565b600060b4600454420311905090565b61071a610c7e565b151561072557600080fd5b61072e81610d6b565b15156107c8576040517f08c379a00000000000000000000000000000000000000000000000000000000081526004018080602001828103825260228152602001807f54686520706c61796572206973206e6f742070617274206f662074686520676181526020017f6d6500000000000000000000000000000000000000000000000000000000000081525060400191505060405180910390fd5b600360009054906101000a900460ff16151561084c576040517f08c379a00000000000000000000000000000000000000000000000000000000081526004018080602001828103825260108152602001807f47616d65206e6f7420737461727465640000000000000000000000000000000081525060200191505060405180910390fd5b6001600061085a91906114b2565b6000600360006101000a81548160ff02191690831515021790555060006002819055508073ffffffffffffffffffffffffffffffffffffffff166108fc3073ffffffffffffffffffffffffffffffffffffffff16319081150290604051600060405180830381858888f193505050501580156108da573d6000803e3d6000fd5b507f315cb5b050a86ef070d8bbdb6e5c148729794c3ddca6e95bc09cccbdc5d124e381604051808273ffffffffffffffffffffffffffffffffffffffff1673ffffffffffffffffffffffffffffffffffffffff16815260200191505060405180910390a150565b61094a81610d6b565b15156109be576040517f08c379a000000000000000000000000000000000000000000000000000000000815260040180806020018281038252600e8152602001807f496e76616c696420706c6179657200000000000000000000000000000000000081525060200191505060405180910390fd5b8073ffffffffffffffffffffffffffffffffffffffff1660016002548154811015156109e657fe5b9060005260206000200160009054906101000a900473ffffffffffffffffffffffffffffffffffffffff1673ffffffffffffffffffffffffffffffffffffffff16141515610a9c576040517f08c379a00000000000000000000000000000000000000000000000000000000081526004018080602001828103825260118152602001807f4e6f742063757272656e74206d6f76657200000000000000000000000000000081525060200191505060405180910390fd5b610aa4610703565b1515610b3e576040517f08c379a00000000000000000000000000000000000000000000000000000000081526004018080602001828103825260228152602001807f4e6f7420656e6f7567682074696d652070617373656420666f722074696d656f81526020017f757400000000000000000000000000000000000000000000000000000000000081525060400191505060405180910390fd5b610b478161122b565b600180549050600254811515610b5957fe5b066002819055504260048190555050565b600360009054906101000a900460ff1681565b60045481565b610b8b610c7e565b1515610b9657600080fd5b600073ffffffffffffffffffffffffffffffffffffffff166000809054906101000a900473ffffffffffffffffffffffffffffffffffffffff1673ffffffffffffffffffffffffffffffffffffffff167f8be0079c531659141344cd1fd0a4f28419497f9722a3daafe3b4186f6b6457e060405160405180910390a360008060006101000a81548173ffffffffffffffffffffffffffffffffffffffff021916908373ffffffffffffffffffffffffffffffffffffffff160217905550565b60008060009054906101000a900473ffffffffffffffffffffffffffffffffffffffff16905090565b60008060009054906101000a900473ffffffffffffffffffffffffffffffffffffffff1673ffffffffffffffffffffffffffffffffffffffff163373ffffffffffffffffffffffffffffffffffffffff161480610d2757506000809054906101000a900473ffffffffffffffffffffffffffffffffffffffff1673ffffffffffffffffffffffffffffffffffffffff163273ffffffffffffffffffffffffffffffffffffffff16145b905090565b610d34610c7e565b1515610d3f57600080fd5b610d488161122b565b600180549050600254811515610d5a57fe5b066002819055504260048190555050565b600080600090505b600180549050811015610e04578273ffffffffffffffffffffffffffffffffffffffff16600182815481101515610da657fe5b9060005260206000200160009054906101000a900473ffffffffffffffffffffffffffffffffffffffff1673ffffffffffffffffffffffffffffffffffffffff161415610df7576001915050610e0a565b8080600101915050610d73565b50600090505b919050565b600360009054906101000a900460ff16151515610e94576040517f08c379a00000000000000000000000000000000000000000000000000000000081526004018080602001828103825260148152602001807f47616d6520616c7265616479207374617274656400000000000000000000000081525060200191505060405180910390fd5b60001515610ea133610d6b565b1515141515610f18576040517f08c379a000000000000000000000000000000000000000000000000000000000815260040180806020018281038252600e8152602001807f416c7265616479206a6f696e656400000000000000000000000000000000000081525060200191505060405180910390fd5b67016345785d8a000034141515610f97576040517f08c379a00000000000000000000000000000000000000000000000000000000081526004018080602001828103825260158152602001807f596f75206d7573742073656e6420302e3120657468000000000000000000000081525060200191505060405180910390fd5b60013390806001815401808255809150509060018203906000526020600020016000909192909190916101000a81548173ffffffffffffffffffffffffffffffffffffffff021916908373ffffffffffffffffffffffffffffffffffffffff160217905550507f31e760aa525306aba638a784082a013b6a1cc0a9a1789f3f22281c0453b10b1f33604051808273ffffffffffffffffffffffffffffffffffffffff1673ffffffffffffffffffffffffffffffffffffffff16815260200191505060405180910390a1565b61106a610c7e565b151561107557600080fd5b600360009054906101000a900460ff161515156110fa576040517f08c379a00000000000000000000000000000000000000000000000000000000081526004018080602001828103825260148152602001807f47616d6520616c7265616479207374617274656400000000000000000000000081525060200191505060405180910390fd5b60018080549050111515611176576040517f08c379a000000000000000000000000000000000000000000000000000000000815260040180806020018281038252601f8152602001807f4174206c65617374203220706c6179657273206172652072657175697265640081525060200191505060405180910390fd5b6001600360006101000a81548160ff02191690831515021790555042600481905550565b60025481565b6111a8610c7e565b15156111b357600080fd5b6111bc81611245565b50565b6001818154811015156111ce57fe5b906000526020600020016000915054906101000a900473ffffffffffffffffffffffffffffffffffffffff1681565b600180549050611219600160025461133f90919063ffffffff16565b81151561122257fe5b06600281905550565b60006112368261135d565b9050611241816113e9565b5050565b600073ffffffffffffffffffffffffffffffffffffffff168173ffffffffffffffffffffffffffffffffffffffff161415151561128157600080fd5b8073ffffffffffffffffffffffffffffffffffffffff166000809054906101000a900473ffffffffffffffffffffffffffffffffffffffff1673ffffffffffffffffffffffffffffffffffffffff167f8be0079c531659141344cd1fd0a4f28419497f9722a3daafe3b4186f6b6457e060405160405180910390a3806000806101000a81548173ffffffffffffffffffffffffffffffffffffffff021916908373ffffffffffffffffffffffffffffffffffffffff16021790555050565b600080828401905083811015151561135357fe5b8091505092915050565b600080600090505b8273ffffffffffffffffffffffffffffffffffffffff1660018281548110151561138b57fe5b9060005260206000200160009054906101000a900473ffffffffffffffffffffffffffffffffffffffff1673ffffffffffffffffffffffffffffffffffffffff161415156113e0578080600101915050611365565b80915050919050565b5b600180805490500381101561149957600180820181548110151561140a57fe5b9060005260206000200160009054906101000a900473ffffffffffffffffffffffffffffffffffffffff1660018281548110151561144457fe5b9060005260206000200160006101000a81548173ffffffffffffffffffffffffffffffffffffffff021916908373ffffffffffffffffffffffffffffffffffffffff16021790555080806001019150506113ea565b60018054809190600190036114ae91906114d3565b5050565b50805460008255906000526020600020908101906114d091906114ff565b50565b8154818355818111156114fa578183600052602060002091820191016114f991906114ff565b5b505050565b61152191905b8082111561151d576000816000905550600101611505565b5090565b9056fea165627a7a72305820f5528365a582915a1d02445eca1eba46bf6cb11da8380faf14400eb277cd5a420029",
  "source": "pragma solidity >=0.4.21 <0.7.0;\n\ncontract Ownable {\n    address private _owner;\n\n    event OwnershipTransferred(address indexed previousOwner, address indexed newOwner);\n\n    /**\n     * @dev The Ownable constructor sets the original `owner` of the contract to the sender\n     * account.\n     */\n    constructor () internal {\n        _owner = msg.sender;\n        emit OwnershipTransferred(address(0), _owner);\n    }\n\n    /**\n     * @return the address of the owner.\n     */\n    function owner() public view returns (address) {\n        return _owner;\n    }\n\n    /**\n     * @dev Throws if called by any account other than the owner.\n     */\n    modifier onlyOwner() {\n        require(isOwner());\n        _;\n    }\n\n    /**\n     * @return true if `msg.sender` is the owner of the contract.\n     */\n    function isOwner() public view returns (bool) {\n        return msg.sender == _owner || tx.origin == _owner;\n    }\n\n    /**\n     * @dev Allows the current owner to relinquish control of the contract.\n     * @notice Renouncing to ownership will leave the contract without an owner.\n     * It will not be possible to call the functions with the `onlyOwner`\n     * modifier anymore.\n     */\n    function renounceOwnership() public onlyOwner {\n        emit OwnershipTransferred(_owner, address(0));\n        _owner = address(0);\n    }\n\n    /**\n     * @dev Allows the current owner to transfer control of the contract to a newOwner.\n     * @param newOwner The address to transfer ownership to.\n     */\n    function transferOwnership(address newOwner) public onlyOwner {\n        _transferOwnership(newOwner);\n    }\n\n    /**\n     * @dev Transfers control of the contract to a newOwner.\n     * @param newOwner The address to transfer ownership to.\n     */\n    function _transferOwnership(address newOwner) internal {\n        require(newOwner != address(0));\n        emit OwnershipTransferred(_owner, newOwner);\n        _owner = newOwner;\n    }\n}\n\n\n/**\n * @title SafeMath\n * @dev Math operations with safety checks that throw on error\n */\nlibrary SafeMath {\n\n  /**\n  * @dev Multiplies two numbers, throws on overflow.\n  */\n    function mul(uint256 a, uint256 b) internal pure returns (uint256) {\n        if (a == 0) {\n            return 0;\n        }\n        uint256 c = a * b;\n        assert(c / a == b);\n        return c;\n    }\n\n    /**\n    * @dev Integer division of two numbers, truncating the quotient.\n    */\n    function div(uint256 a, uint256 b) internal pure returns (uint256) {\n        // assert(b > 0); // Solidity automatically throws when dividing by 0\n        uint256 c = a / b;\n        // assert(a == b * c + a % b); // There is no case in which this doesn't hold\n        return c;\n    }\n\n    /**\n    * @dev Substracts two numbers, throws on overflow (i.e. if subtrahend is greater than minuend).\n    */\n    function sub(uint256 a, uint256 b) internal pure returns (uint256) {\n        assert(b <= a);\n        return a - b;\n    }\n\n    /**\n    * @dev Adds two numbers, throws on overflow.\n    */\n    function add(uint256 a, uint256 b) internal pure returns (uint256) {\n        uint256 c = a + b;\n        assert(c >= a);\n        return c;\n    }\n}\n\ncontract Uno is Ownable {\n    using SafeMath for uint256;\n    \n    address[] public players;\n    uint256 public nextMover = 0;\n    bool public gameStarted = false;\n    uint256 public lastTimeMoved;\n    \n    // Events\n    event GameStarted();\n    event PlayerJoined(address player);\n    event PlayerMoved(address player, string hash);\n    event WinnerChosen(address player);\n\n    //A new player joins the game\n    function joinGame() public payable {\n        require(!gameStarted, \"Game already started\");\n        require(isPlaying(msg.sender) == false, \"Already joined\");\n        require(msg.value == 0.1 ether, \"You must send 0.1 eth\");\n        \n        players.push(msg.sender);\n        \n        emit PlayerJoined(msg.sender);\n    }\n    \n    //The platform initiates a new game. No more players can join\n    function startGame() external onlyOwner {\n        require(!gameStarted, \"Game already started\");\n        require(players.length > 1, \"At least 2 players are required\");\n        \n        gameStarted = true;\n        lastTimeMoved = now;\n    }\n    \n    //Each player moves on their turn and send the hash representing the movement\n    function move(string calldata _hash) external {\n        require(isPlaying(msg.sender), \"Invalid player\");\n        require(players[nextMover] == msg.sender, \"Wrong mover\");\n        lastTimeMoved = now;\n\n        setNextPlayer();\n        \n        emit PlayerMoved(msg.sender, _hash);\n    }\n    \n    //The platform defines a player as the winner, transfes him the ETH and reinitializes the game\n    function chooseWinner(address payable _player) public onlyOwner payable {\n        require(isPlaying(_player), \"The player is not part of the game\");\n        require(gameStarted, \"Game not started\");\n        \n        delete players;\n        gameStarted = false;\n        nextMover = 0;\n        _player.transfer(address(this).balance);\n        \n        emit WinnerChosen(_player);\n    }\n    \n    function expulsePlayer(address player) public onlyOwner {\n        _removePlayerByValue(player);\n        \n        nextMover = nextMover % players.length;\n        lastTimeMoved = now;\n    }\n    \n    \n    function expulsePlayerForTimeout(address _player) public {\n        require(isPlaying(_player), \"Invalid player\");\n        require(players[nextMover] == _player, \"Not current mover\");\n        require(isTimeout(), \"Not enough time passed for timeout\");\n        \n        _removePlayerByValue(_player);\n        \n        nextMover = nextMover % players.length;\n        lastTimeMoved = now;\n    }\n    \n    function setNextPlayer() internal {\n        nextMover = (nextMover.add(1)) % players.length;\n    }\n\n    function isPlaying(address _player) public view returns(bool) {\n        for (uint256 i = 0; i < players.length; i++) {\n            if (players[i] == _player) {\n                return true;\n            }\n        }\n        \n        return false;\n    }\n    \n    function isTimeout() public view returns (bool) {\n        return now - lastTimeMoved > 3 minutes;\n    }\n\n    function _findPlayer(address _value) internal view returns(uint) {\n        uint i = 0;\n        while (players[i] != _value) {\n            i++;\n        }\n        return i;\n    }\n\n    function _removePlayerByValue(address _value) internal {\n        uint i = _findPlayer(_value);\n        _removePlayerByIndex(i);\n    }\n\n    function _removePlayerByIndex(uint _i) internal {\n        while (_i<players.length-1) {\n            players[_i] = players[_i+1];\n            _i++;\n        }\n        players.length--;\n    }\n    \n    //This avoids player sending ETH to the contract by mistake\n    function() external payable {\n        revert();\n    } \n}",
  "sourcePath": "/Users/nkwazi/uno_solidity/contracts/Uno.sol",
  "compiler": {
    "name": "solc",
    "version": "0.5.0+commit.1d4f565a.Emscripten.clang"
  },
  "schemaVersion": "3.0.2",
  "updatedAt": "2020-06-06T12:05:03.980Z",
  "devdoc": {
    "methods": {
      "isOwner()": {
        "return": "true if `msg.sender` is the owner of the contract."
      },
      "owner()": {
        "return": "the address of the owner."
      },
      "renounceOwnership()": {
        "details": "Allows the current owner to relinquish control of the contract."
      },
      "transferOwnership(address)": {
        "details": "Allows the current owner to transfer control of the contract to a newOwner.",
        "params": {
          "newOwner": "The address to transfer ownership to."
        }
      }
    }
  },
  "userdoc": {
    "methods": {
      "renounceOwnership()": {
        "notice": "Renouncing to ownership will leave the contract without an owner. It will not be possible to call the functions with the `onlyOwner` modifier anymore."
      }
    }
  }
}